:020000040800F2
:1000000000280020D50F0008650F00086B0F0008BE
:10001000710F0008770F00087D0F00080000000036
:10002000000000000000000000000000830F000836
:100030008F0F0008000000009B0F0008A70F0008AA
:100040001D1000081D1000081D1000081D100008DC
:100050001D1000081D1000081D1000081D100008CC
:100060001D1000081D1000081D1000081D100008BC
:100070001D1000081D1000081D1000081D100008AC
:100080001D1000081D1000081D1000081D1000089C
:100090001D1000081D1000081D1000081D1000088C
:1000A0001D1000081D1000081D1000081D1000087C
:1000B000B50F00081D100008000000001D1000080A
:1000C0001D10000800000000000000001D100008C6
:1000D000000000001D1000081D10000800000000B6
:1000E0001D1000081D1000081D1000080000000071
:1000F0000000000000000000000000000000000000
:0C01000000000000000000005FF808F1A3
:10010C0010B5054C237833B9044B13B10448AFF345
:10011C0000800123237010BD5C0000200000000053
:10012C007426000808B5034B1BB103490348AFF311
:10013C00008008BD0000000060000020742600084C
:10014C0080B582B000AF7860064A7B68012142F826
:10015C0023102021044801F076FA00BF0837BD4671
:10016C0080BD00BF780000200008014080B483B03F
:10017C0000AF7860044A7B68012142F8231000BF6D
:10018C000C37BD4680BC70478400002080B483B01F
:10019C0000AF7860094A7B6852F82330012B06D1F6
:1001AC00064A7B68002142F82310012300E000235B
:1001BC0018460C37BD4680BC704700BF7800002045
:1001CC0080B483B000AF7860094A7B6852F8233062
:1001DC00012B06D1064A7B68002142F8231001232B
:1001EC0000E0002318460C37BD4680BC704700BFAA
:1001FC008400002080B582B000AF0346FB80FA88F3
:10020C00FB883D4951F822203C4941F82320FA88CB
:10021C00FB883B4951F82220374941F82320FB88C1
:10022C00384A32F813301946374801F0DDF90346E5
:10023C001A46FB881146324A42F82310FB882E4A94
:10024C0052F82320FB882E4951F823309A424ED184
:10025C00FB88294A52F82320FB88284951F823307F
:10026C009A4244D1FB88254A52F82320FB8827491F
:10027C0051F823309A4218D0FA88FB881F4951F85C
:10028C002220224941F82320FB88204A52F82330AF
:10029C00002B2CD1FB881846FFF752FFFB881C4A19
:1002AC004FF4967142F8231021E0FB88184A52F85B
:1002BC002320013A164941F82320FB88144A52F8AE
:1002CC002330002B13D1FB88124A002142F8231053
:1002DC00FB880E4A52F82330002B03D1FB881846BA
:1002EC00FFF744FFFB880A4A642142F8231000BF41
:1002FC000837BD4680BD00BF140000202000002040
:10030C000800002000000020000801402C00002004
:10031C00380000207800002080B500AFBB4B1B6874
:10032C000A3B132B00F2778301A252F823F000BF93
:10033C008D030008230A0008230A0008230A00087A
:10034C00230A0008230A0008230A0008230A0008CD
:10035C00230A0008230A00089D030008370400083C
:10036C00D7040008770500082D060008CD06000804
:10037C006D0700080D080008C10800085F09000897
:10038C00A24B14221A6042F2107000F01FFD42E3DF
:10039C009F4B1B78184600F04BFB0020FFF7F6FE36
:1003AC000346002B05D0994B0A221A60994B002268
:1003BC001A600120FFF7EAFE0346002B05D101204D
:1003CC00FFF7FEFE0346002B0CD0904B15221A6053
:1003DC0042F2107000F0FAFC8E4B00225A608E4BE9
:1003EC0000225A600220FFF7D1FE0346002B05D1F4
:1003FC000220FFF7E5FE0346002B09D0834B1D229C
:10040C001A6042F2107000F0E1FC824B00229A60FC
:10041C00824B1B68012B40F0EB827C4B14221A6040
:10042C004FF47A7000F0D2FCE2E2794B5B7818461C
:10043C0000F0FEFA0020FFF7A9FE0346002B05D0C2
:10044C00724B0A221A60734B00221A600120FFF7CC
:10045C009DFE0346002B05D10120FFF7B1FE03469C
:10046C00002B0CD0694B16221A6042F2107000F06F
:10047C00ADFC684B00225A60674B00225A60022088
:10048C00FFF784FE0346002B05D10220FFF798FEF0
:10049C000346002B0CD05D4B14221A6042F21070F4
:1004AC0000F094FC5B4B00229A605B4B00229A603C
:1004BC005A4B1B68012B40F09D82544B14221A603E
:1004CC004FF47A7000F082FC94E2514B9B78184602
:1004DC0000F0AEFA0020FFF759FE0346002B05D0C2
:1004EC004A4B0A221A604B4B00221A600120FFF77C
:1004FC004DFE0346002B05D10120FFF761FE03469C
:10050C00002B0CD0414B17221A6042F2107000F0F5
:10051C005DFC404B00225A603F4B00225A60022087
:10052C00FFF734FE0346002B05D10220FFF748FEEF
:10053C000346002B0CD0354B15221A6042F210707A
:10054C0000F044FC344B00229A60324B00229A603B
:10055C00324B1B68012B40F04F822C4B15221A603A
:10056C004FF47A7000F032FC46E2294BDB781846E7
:10057C0000F05EFA0020FFF709FE0346002B05D0C1
:10058C00224B0A221A60234B00221A600120FFF72B
:10059C00FDFD0346002B05D10120FFF711FE03469C
:1005AC00002B0CD0194B18221A6042F2107000F07C
:1005BC000DFC184B00225A60174B00225A60022087
:1005CC00FFF7E4FD0346002B05D10220FFF7F8FDF1
:1005DC000346002B0CD00D4B16221A6042F2107001
:1005EC0000F0F4FB0C4B00229A600A4B00229A603C
:1005FC000A4B1B68012B40F00182044B16221A6037
:10060C004FF47A7000F0E2FBF8E100BFB00000207C
:10061C004400002078000020840000209C00002072
:10062C009F4B1B79184600F003FA0020FFF7AEFD34
:10063C000346002B05D09B4B0A221A609A4B0022D2
:10064C001A600120FFF7A2FD0346002B05D1012003
:10065C00FFF7B6FD0346002B0CD0924B19221A6003
:10066C0042F2107000F0B2FB8F4B00225A608F4B9D
:10067C0000225A600220FFF789FD0346002B05D1AA
:10068C000220FFF79DFD0346002B0CD0854B172253
:10069C001A6042F2107000F099FB844B00229A60B1
:1006AC00814B00229A60824B1B68012B40F0A88181
:1006BC007C4B17221A604FF47A7000F087FB9FE195
:1006CC00774B5B79184600F0B3F90020FFF75EFD1D
:1006DC000346002B05D0734B0A221A60724B002282
:1006EC001A600120FFF752FD0346002B05D10120B3
:1006FC00FFF766FD0346002B0CD06A4B1A221A60DA
:10070C0042F2107000F062FB674B00225A60674B9C
:10071C0000225A600220FFF739FD0346002B05D159
:10072C000220FFF74DFD0346002B0CD05D4B182229
:10073C001A6042F2107000F049FB5C4B00229A6088
:10074C00594B00229A605A4B1B68012B40F05A817E
:10075C00544B18221A604FF47A7000F037FB51E1B9
:10076C004F4B9B79184600F063F90020FFF70EFD04
:10077C000346002B05D04B4B0A221A604A4B002231
:10078C001A600120FFF702FD0346002B05D1012062
:10079C00FFF716FD0346002B0CD0424B1B221A60B0
:1007AC0042F2107000F012FB3F4B00225A603F4B9C
:1007BC0000225A600220FFF7E9FC0346002B05D10A
:1007CC000220FFF7FDFC0346002B0CD0354B192201
:1007DC001A6042F2107000F0F9FA344B00229A6061
:1007EC00314B00229A60324B1B68012B40F00C817C
:1007FC002C4B19221A604FF47A7000F0E7FA03E1DF
:10080C00274BDB79184600F013F90020FFF7BEFCEC
:10081C000346002B05D0234B0A221A60224B0022E0
:10082C001A600120FFF7B2FC0346002B05D1012012
:10083C00FFF7C6FC0346002B0CD01A4B1C221A6087
:10084C0042F2107000F0C2FA174B00225A60174B9C
:10085C0000225A600220FFF799FC0346002B05D1B9
:10086C000220FFF7ADFC0346002B0CD00D4B1A22D7
:10087C001A6042F2107000F0A9FA0C4B00229A6038
:10088C00094B00229A600A4B1B68012B40F0BE807A
:10089C00044B1A221A604FF47A7000F097FAB5E004
:1008AC0044000020B00000207800002084000020CC
:1008BC009C000020594B1B7A184600F0B9F8002018
:1008CC00FFF764FC0346002B05D0554B0A221A6037
:1008DC00544B00221A600120FFF758FC0346002BF2
:1008EC0005D10120FFF76CFC0346002B0CD04C4BC0
:1008FC001D221A6042F2107000F068FA494B002277
:10090C005A60494B00225A600220FFF73FFC034615
:10091C00002B05D10220FFF753FC0346002B0CD013
:10092C003F4B1B221A6042F2107000F04FFA3E4B04
:10093C0000229A603B4B00229A603C4B1B68012BB7
:10094C0066D1374B1B221A604FF47A7000F03EFAD6
:10095C005EE0324B5B7A184600F06AF80020FFF735
:10096C0015FC0346002B05D02D4B0A221A602D4B8B
:10097C0000221A600120FFF709FC0346002B05D169
:10098C000120FFF71DFC0346002B0CD0244B142236
:10099C001A6042F2107000F019FA224B00225A60D1
:1009AC00214B00225A600220FFF7F0FB0346002B7C
:1009BC0005D10220FFF704FC0346002B0CD0184B8A
:1009CC001C221A6042F2107000F000FA164B002242
:1009DC009A60144B00229A60144B1B68012B19D19E
:1009EC000F4B1C221A604FF47A7000F0EFF911E0F3
:1009FC0000BF10E000BF0EE000BF0CE000BF0AE03B
:100A0C0000BF08E000BF06E000BF04E000BF02E04A
:100A1C0000BF00E000BF00BF80BD00BF440000204D
:100A2C00B000002078000020840000209C000020F2
:100A3C0080B582B000AF0346FB71FB799B09DBB23A
:100A4C0003F00103DBB21A460121234800F0E3FD59
:100A5C00FB795B09DBB203F00103DBB21A4602211E
:100A6C001D4800F0D8FDFB791B09DBB203F0010334
:100A7C00DBB21A460421184800F0CDFDFB79DB08E7
:100A8C00DBB203F00103DBB21A460821124800F076
:100A9C00C2FDFB799B08DBB203F00103DBB21A4603
:100AAC0010210D4800F0B7FDFB795B08DBB203F0B9
:100ABC000103DBB21A462021074800F0ACFDFB799C
:100ACC0003F00103DBB21A464021034800F0A3FDFA
:100ADC0000BF0837BD4680BD000C014080B500AF9B
:100AEC00064B1B68012B07D12021054800F0ABFDFC
:100AFC004FF47A7000F050F900BF80BD94000020D4
:100B0C000008014080B500AF00F084FA00F018F83E
:100B1C0000F0BAF800F050F8074801F0E5F9074B7F
:100B2C000A221A604FF47A7000F036F9FFF7D6FFFC
:100B3C00FFF7F2FBFAE700BFB4000020B000002082
:100B4C0080B590B000AF07F1180328220021184699
:100B5C0001F082FD3B1D00221A605A609A60DA6037
:100B6C001A610223BB610123BB621023FB620023C9
:100B7C007B6307F11803184600F07EFD0346002B3B
:100B8C0001D000F004F90F237B600023BB6000232D
:100B9C00FB6000233B6100237B613B1D0021184659
:100BAC0000F0EAFF0346002B01D000F0F0F800BF84
:100BBC004037BD4680BD000080B586B000AF07F160
:100BCC00080300221A605A609A60DA603B460022E1
:100BDC001A605A60294B4FF080421A60274B092249
:100BEC005A60264B00229A60244B41F63F72DA6021
:100BFC00224B00221A61214B80229A611F4801F07E
:100C0C0023F90346002B01D000F0C1F84FF48053B8
:100C1C00BB6007F108031946184801F0B9FA0346FE
:100C2C00002B01D000F0B3F800233B6000237B6065
:100C3C003B461946114801F081FC0346002B01D0BC
:100C4C0000F0A5F80D4B1B694FF47A7202FA03F30E
:100C5C001A460A4BDB68013303FB02F3074A52685E
:100C6C00013202FB03F3064AA2FB03235B0D1A4677
:100C7C00044B1A6000BF1837BD4680BDB40000207D
:100C8C0083DE1B43FC00002080B586B000AF07F16B
:100C9C00080300221A605A609A60DA602F4B9B6935
:100CAC002E4A43F0040393612C4B9B6903F004031D
:100CBC007B607B68294B9B69284A43F0080393614E
:100CCC00264B9B6903F008033B603B680022202104
:100CDC00234800F0A0FC00227D21224800F09BFC60
:100CEC00012202211F4800F096FC0123BB60002367
:100CFC00FB6000233B6107F108031946184800F01C
:100D0C00F9FA0623BB600023FB6001233B6107F16A
:100D1C0008031946124800F0EDFA2023BB600123AA
:100D2C00FB6000233B6102237B6107F1080319463A
:100D3C000B4800F0DFFA7F23BB600123FB6000232C
:100D4C003B6102237B6107F108031946054800F05B
:100D5C00D1FA00BF1837BD4680BD00BF001002405D
:100D6C0000080140000C014080B582B000AF7860F3
:100D7C0000F046F80020FFF73DFA0120FFF73AFAA1
:100D8C000220FFF737FA00BF0837BD4680BD80B49C
:100D9C0000AF72B600BFFEE780B483B000AF7860DE
:100DAC00074B1B687A6892FBF3F3064A1360064BF9
:100DBC0000221A6000BF0C37BD4680BC704700BFD4
:100DCC00FC000020900000209400002080B483B030
:100DDC0000AF7860074B1B687A6892FBF3F3064A06
:100DEC001360064B00221A6000BF0C37BD4680BC56
:100DFC00704700BFFC000020980000209C000020E1
:100E0C0080B400AF214B1B68002B0BDD1F4B1B6804
:100E1C00013B1E4A13601D4B1B68002B02DC1C4B54
:100E2C0001221A601B4B1B68002B0BDD194B1B6836
:100E3C00013B184A1360174B1B68002B02DC164B46
:100E4C0001221A60154B1B68002B0BDD134B1B6822
:100E5C00013B124A1360114B1B68002B02DC104B38
:100E6C0001221A600F4B1B68002B0BDD0D4B1B680E
:100E7C00013B0C4A13600B4B1B68002B02DC0A4B2A
:100E8C0001221A6000BFBD4680BC70479000002054
:100E9C0094000020980000209C000020A00000205E
:100EAC00A4000020A8000020AC00002080B485B075
:100EBC0000AF154B9B69144A43F001039361124B2D
:100ECC009B6903F00103BB60BB680F4BDB690E4AE7
:100EDC0043F08053D3610C4BDB6903F080537B6090
:100EEC007B680A4B5B68FB60FB6823F0E063FB608C
:100EFC00FB6843F08063FB60044AFB68536000BFEF
:100F0C001437BD4680BC7047001002400000014001
:100F1C0080B584B000AF78607B681B68B3F1804FFC
:100F2C0013D10C4BDB690B4A43F00103D361094B22
:100F3C00DB6903F00103FB60FB68002200211C202D
:100F4C0000F0A1F91C2000F0BAF900BF1037BD4623
:100F5C0080BD00BF0010024080B400AFFEE780B43B
:100F6C0000AFFEE780B400AFFEE780B400AFFEE751
:100F7C0080B400AFFEE780B400AF00BFBD4680BCBC
:100F8C00704780B400AF00BFBD4680BC704780B4D2
:100F9C0000AF00BFBD4680BC704780B500AF00F00D
:100FAC007FF800BF80BD000080B500AF024800F0A4
:100FBC00E7FF00BF80BD00BFB400002080B400AFCD
:100FCC0000BFBD4680BC70470C480D490D4A00233C
:100FDC0002E0D458C4500433C4188C42F9D30A4AE2
:100FEC000A4C002301E013600432A242FBD3FFF74A
:100FFC00E5FF01F00DFBFFF785FD704700000020B9
:10100C005C000020B42600085C00002004010020D5
:10101C00FEE7000080B500AF084B1B68074A43F0A1
:10102C0010031360032000F023F90F2000F008F8E0
:10103C00FFF73CFF0023184680BD00BF0020024094
:10104C0080B582B000AF7860124B1A68124B1B78D7
:10105C0019464FF47A73B3FBF1F3B2FBF3F3184672
:10106C0000F03BF90346002B01D001230EE07B6816
:10107C000F2B0AD8002279684FF0FF3000F003F9EB
:10108C00064A7B681360002300E0012318460837EA
:10109C00BD4680BD500000205800002054000020A8
:1010AC0080B400AF054B1B781A46054B1B681344E4
:1010BC00034A136000BFBD4680BC70475800002037
:1010CC000001002080B400AF024B1B681846BD46DF
:1010DC0080BC70470001002080B485B000AF786000
:1010EC007B6803F00703FB600C4BDB68BB60BA68E2
:1010FC004FF6FF031340BB60FB681A02BB68134337
:10110C0043F0BF6343F40033BB60044ABB68D36055
:10111C0000BF1437BD4680BC704700BF00ED00E037
:10112C0080B400AF044BDB681B0A03F007031846BE
:10113C00BD4680BC704700BF00ED00E080B483B0BA
:10114C0000AF0346FB7197F90730002B0BDBFB79E3
:10115C0003F01F02064997F907305B09012000FADA
:10116C0002F241F8232000BF0C37BD4680BC70470B
:10117C0000E100E080B483B000AF03463960FB713E
:10118C0097F90730002B0ADB3B68DAB20C4997F968
:10119C0007301201D2B20B4483F800230AE03B68FB
:1011AC00DAB20849FB7903F00F03043B1201D2B207
:1011BC000B441A7600BF0C37BD4680BC704700BF8D
:1011CC0000E100E000ED00E080B489B000AFF86011
:1011DC00B9607A60FB6803F00703FB61FB69C3F13C
:1011EC000703042B28BF0423BB61FB690433062BC4
:1011FC0002D9FB69033B00E000237B614FF0FF3217
:10120C00BB6902FA03F3DA43BB681A407B699A4064
:10121C004FF0FF317B6901FA03F3D9437B680B4034
:10122C00134318462437BD4680BC704780B582B046
:10123C0000AF78607B68013BB3F1807F01D3012361
:10124C000FE00A4A7B68013B53600F214FF0FF30DF
:10125C00FFF790FF054B00229A60044B07221A609F
:10126C00002318460837BD4680BD00BF10E000E0E3
:10127C0080B582B000AF78607868FFF72DFF00BFB3
:10128C000837BD4680BD80B586B000AF0346B96057
:10129C007A60FB7300237B61FFF742FF78617A6809
:1012AC00B9687869FFF790FF024697F90F3011463D
:1012BC001846FFF75FFF00BF1837BD4680BD80B5ED
:1012CC0082B000AF0346FB7197F907301846FFF761
:1012DC0035FF00BF0837BD4680BD80B582B000AF7A
:1012EC0078607868FFF7A2FF034618460837BD46BA
:1012FC0080BD000080B48BB000AF786039600023F3
:10130C007B6200233B6248E101227B6A02FA03F311
:10131C00FB613B681B68FA691340BB61BA69FB69E6
:10132C009A4240F037813B685B68A34A93425ED097
:10133C00A14A934275D8A14A934258D09F4A9342EE
:10134C006FD89F4A934252D09D4A934269D89D4A86
:10135C0093424CD09B4A934263D89B4A934246D0CB
:10136C00994A93425DD8122B2AD8122B59D801A234
:10137C0052F823F0FB130008D5130008E7130008FC
:10138C00291400082F1400082F1400082F1400082B
:10139C002F1400082F1400082F1400082F14000815
:1013AC002F1400082F1400082F1400082F14000805
:1013BC002F1400082F140008DD130008F113000887
:1013CC00824A934213D02CE03B68DB683B6229E0F5
:1013DC003B68DB6804333B6224E03B68DB68083322
:1013EC003B621FE03B68DB680C333B621AE03B68F6
:1013FC009B68002B02D104233B6213E03B689B6883
:10140C00012B05D108233B627B68FA691A6109E05C
:10141C0008233B627B68FA695A6103E000233B6254
:10142C0000E000BFBB69FF2B01D87B6801E07B6843
:10143C0004337B61BB69FF2B02D87B6A9B0002E003
:10144C007B6A083B9B003B617B691A680F213B69F7
:10145C0001FA03F3DB431A40396A3B6901FA03F3DF
:10146C001A437B691A603B685B6803F08053002B5E
:10147C0000F09080564B9B69554A43F001039361F1
:10148C00534B9B6903F00103BB60BB68514A7B6AF9
:10149C009B08023352F82330FB607B6A03F0030392
:1014AC009B000F2202FA03F3DB43FA681340FB6044
:1014BC007B68494A93420DD07B68484A934207D0D7
:1014CC007B68474A934201D1022304E0032302E0E4
:1014DC00012300E000237A6A02F003029200934099
:1014EC00FA681343FB603B497B6A9B080233FA683A
:1014FC0041F823203B685B6803F48033002B06D053
:10150C00384B1A683749BB6913430B6006E0354BFF
:10151C001A68BB69DB43334913400B603B685B685B
:10152C0003F40033002B06D02E4B5A682D49BB69AF
:10153C0013434B6006E02B4B5A68BB69DB432949CC
:10154C0013404B603B685B6803F48013002B06D0A0
:10155C00244B9A682349BB6913438B6006E0214BEB
:10156C009A68BB69DB431F4913408B603B685B681F
:10157C0003F40013002B06D01A4BDA681949BB6927
:10158C001343CB6006E0174BDA68BB69DB431549A4
:10159C001340CB607B6A01337B623B681A687B6AC1
:1015AC0022FA03F3002B7FF4AFAE00BF00BF2C3741
:1015BC00BD4680BC704700BF0000321000003110E7
:1015CC000000221000002110000012100000111069
:1015DC00001002400000014000080140000C0140D6
:1015EC00001001400004014080B485B000AF786069
:1015FC000B467B807B689A687B881340002B02D05B
:10160C000123FB7301E00023FB73FB7B18461437AB
:10161C00BD4680BC704780B483B000AF78600B4689
:10162C007B8013467B707B78002B03D07A887B6899
:10163C001A6103E07B881A047B681A6100BF0C37BF
:10164C00BD4680BC704780B485B000AF78600B4657
:10165C007B807B68DB68FB607A88FB6813401A042C
:10166C00FB68D9437B880B401A437B681A6100BF27
:10167C001437BD4680BC704780B586B000AF78602B
:10168C007B68002B01D101236CE27B681B6803F0A3
:10169C000103002B00F08780924B5B6803F00C0376
:1016AC00042B0CD08F4B5B6803F00C03082B12D16E
:1016BC008C4B5B6803F48033B3F5803F0BD1894BC3
:1016CC001B6803F40033002B6CD07B685B68002B29
:1016DC0068D1012346E27B685B68B3F5803F06D195
:1016EC00804B1B687F4A43F4803313602EE07B6889
:1016FC005B68002B0CD17B4B1B687A4A23F480333C
:10170C001360784B1B68774A23F4802313601DE029
:10171C007B685B68B3F5A02F0CD1724B1B68714AC8
:10172C0043F4802313606F4B1B686E4A43F4803381
:10173C0013600BE06B4B1B686A4A23F48033136015
:10174C00684B1B68674A23F4802313607B685B68D3
:10175C00002B13D0FFF7B6FC386108E0FFF7B2FCA2
:10176C0002463B69D31A642B01D90323FAE15D4B82
:10177C001B6803F40033002BF0D014E0FFF7A2FC3D
:10178C00386108E0FFF79EFC02463B69D31A642BD4
:10179C0001D90323E6E1534B1B6803F40033002B00
:1017AC00F0D100E000BF7B681B6803F00203002B44
:1017BC0063D04C4B5B6803F00C03002B0BD0494BF4
:1017CC005B6803F00C03082B1CD1464B5B6803F4DD
:1017DC008033002B16D1434B1B6803F00203002B04
:1017EC0005D07B681B69012B01D00123BAE13D4B6D
:1017FC001B6823F0F8027B685B69DB0039491343F3
:10180C000B603AE07B681B69002B20D0364B012221
:10181C001A60FFF757FC386108E0FFF753FC0246EB
:10182C003B69D31A022B01D903239BE12D4B1B6877
:10183C0003F00203002BF0D02A4B1B6823F0F802B4
:10184C007B685B69DB00274913430B6015E0264B73
:10185C0000221A60FFF736FC386108E0FFF732FC13
:10186C0002463B69D31A022B01D903237AE11D4BA3
:10187C001B6803F00203002BF0D17B681B6803F09C
:10188C000803002B3AD07B689B69002B19D0174BAF
:10189C0001221A60FFF716FC386108E0FFF712FC12
:1018AC0002463B69D31A022B01D903235AE10D4B93
:1018BC005B6A03F00203002BF0D0012000F0A6FAC3
:1018CC001CE00A4B00221A60FFF7FCFB38610FE0AA
:1018DC00FFF7F8FB02463B69D31A022B08D9032306
:1018EC0040E100BF0010024000004242800442422E
:1018FC009E4B5B6A03F00203002BE9D17B681B68EB
:10190C0003F00403002B00F0A6800023FB75974B1B
:10191C00DB6903F08053002B0DD1944BDB69934AA8
:10192C0043F08053D361914BDB6903F08053BB6070
:10193C00BB680123FB758E4B1B6803F48073002B73
:10194C0018D18B4B1B688A4A43F480731360FFF7E2
:10195C00B9FB386108E0FFF7B5FB02463B69D31AC7
:10196C00642B01D90323FDE0814B1B6803F48073C6
:10197C00002BF0D07B68DB68012B06D17B4B1B6AFC
:10198C007A4A43F0010313622DE07B68DB68002B7D
:10199C000CD1764B1B6A754A23F001031362734B0F
:1019AC001B6A724A23F0040313621CE07B68DB6839
:1019BC00052B0CD16D4B1B6A6C4A43F0040313626C
:1019CC006A4B1B6A694A43F0010313620BE0674BD5
:1019DC001B6A664A23F001031362644B1B6A634A59
:1019EC0023F0040313627B68DB68002B15D0FFF730
:1019FC0069FB38610AE0FFF765FB02463B69D31AC5
:101A0C0041F28832934201D90323ABE0574B1B6A56
:101A1C0003F00203002BEED014E0FFF753FB386108
:101A2C000AE0FFF74FFB02463B69D31A41F28832BA
:101A3C00934201D9032395E04C4B1B6A03F002033C
:101A4C00002BEED1FB7D012B05D1484BDB69474ABE
:101A5C0023F08053D3617B68DB69002B00F081801D
:101A6C00424B5B6803F00C03082B61D07B68DB698D
:101A7C00022B46D13F4B00221A60FFF723FB386143
:101A8C0008E0FFF71FFB02463B69D31A022B01D972
:101A9C00032367E0354B1B6803F00073002BF0D178
:101AAC007B681B6AB3F5803F08D1304B5B6823F42D
:101ABC0000327B689B682D4913434B602B4B5B6852
:101ACC0023F474127B68196A7B685B6A0B432749A1
:101ADC0013434B60274B01221A60FFF7F3FA38616E
:101AEC0008E0FFF7EFFA02463B69D31A022B01D943
:101AFC00032337E01D4B1B6803F00073002BF0D061
:101B0C002FE01C4B00221A60FFF7DCFA386108E06A
:101B1C00FFF7D8FA02463B69D31A022B01D90323EB
:101B2C0020E0124B1B6803F00073002BF0D118E07F
:101B3C007B68DB69012B01D1012313E00B4B5B6844
:101B4C00FB60FB6803F480327B681B6A9A4206D107
:101B5C00FB6803F470127B685B6A9A4201D0012324
:101B6C0000E0002318461837BD4680BD0010024027
:101B7C00007000406000424280B584B000AF7860D5
:101B8C0039607B68002B01D10123D0E06A4B1B68C4
:101B9C0003F007033A689A4210D9674B1B6823F08D
:101BAC00070265493B6813430B60634B1B6803F0EA
:101BBC0007033A689A4201D00123B8E07B681B689E
:101BCC0003F00203002B20D07B681B6803F0040396
:101BDC00002B05D0594B5B68584A43F4E0635360C3
:101BEC007B681B6803F00803002B05D0534B5B6824
:101BFC00524A43F460535360504B5B6823F0F0023D
:101C0C007B689B684D4913434B607B681B6803F0F2
:101C1C000103002B40D07B685B68012B07D1474B3D
:101C2C001B6803F40033002B15D101237FE07B6884
:101C3C005B68022B07D1414B1B6803F00073002B30
:101C4C0009D1012373E03D4B1B6803F00203002B09
:101C5C0001D101236BE0394B5B6823F003027B68F5
:101C6C005B68364913434B60FFF72CFAF8600AE0C7
:101C7C00FFF728FA0246FB68D31A41F288329342E6
:101C8C0001D9032353E02D4B5B6803F00C027B68F6
:101C9C005B689B009A42EBD1274B1B6803F0070350
:101CAC003A689A4210D2244B1B6823F0070222494F
:101CBC003B6813430B60204B1B6803F007033A6827
:101CCC009A4201D0012332E07B681B6803F00403C5
:101CDC00002B08D0194B5B6823F4E0627B68DB684F
:101CEC00164913434B607B681B6803F00803002BF9
:101CFC0009D0124B5B6823F460527B681B69DB00D4
:101D0C000E4913434B6000F021F802460B4B5B6805
:101D1C001B0903F00F030A49CB5C22FA03F3094AAF
:101D2C001360094B1B681846FFF78AF90023184605
:101D3C001037BD4680BD00BF00200240001002409D
:101D4C009C260008500000205400002090B48AB05B
:101D5C0000AF2A4B3C1D0FCB84E80F0040F201234F
:101D6C003B800023FB610023BB6100237B620023CB
:101D7C007B6100233B62224B5B68FB61FB6903F0D8
:101D8C000C03042B02D0082B03D02DE01D4B3B621F
:101D9C002DE0FB699B0C03F00F0307F128021344A1
:101DAC0013F8243C7B61FB6903F48033002B13D0C4
:101DBC00134B5B685B0C03F0010307F1280213441F
:101DCC0013F8283CBB617B690E4A02FB03F2BB692A
:101DDC00B2FBF3F37B6204E07B690B4A02FB03F377
:101DEC007B627B6A3B6202E0064B3B6200BF3B6A54
:101DFC0018462837BD4690BC704700BF8C2600089B
:101E0C000010024000127A0000093D0080B485B039
:101E1C0000AF78600A4B1B680A4AA2FB03235B0ADB
:101E2C007A6802FB03F3FB6000BFFB685A1EFA6082
:101E3C00002BF9D100BF00BF1437BD4680BC7047E2
:101E4C0050000020D34D621080B582B000AF786096
:101E5C007B68002B01D1012341E07B6893F83D3076
:101E6C00DBB2002B06D17B68002283F83C2078681B
:101E7C00FFF74EF87B68022283F83D207B681A68D6
:101E8C007B6804331946104600F06AFA7B6801221D
:101E9C0083F846207B68012283F83E207B68012270
:101EAC0083F83F207B68012283F840207B68012265
:101EBC0083F841207B68012283F842207B68012251
:101ECC0083F843207B68012283F844207B6801223D
:101EDC0083F845207B68012283F83D2000231846B7
:101EEC000837BD4680BD000080B485B000AF786077
:101EFC007B6893F83D30DBB2012B01D0012335E038
:101F0C007B68022283F83D207B681B68DA687B685B
:101F1C001B6842F00102DA607B681B68164A934228
:101F2C0009D07B681B68B3F1804F04D07B681B68B9
:101F3C00124A934211D17B681B689B6803F007031C
:101F4C00FB60FB68062B10D07B681B681A687B68EB
:101F5C001B6842F001021A6007E07B681B681A6874
:101F6C007B681B6842F001021A6000231846143784
:101F7C00BD4680BC704700BF002C014000040040EF
:101F8C0080B582B000AF78607B681B681B6903F07A
:101F9C000203022B22D17B681B68DB6803F002036F
:101FAC00022B1BD17B681B686FF002021A617B68E5
:101FBC0001221A777B681B689B6903F00303002BD3
:101FCC0003D0786800F0B1F905E0786800F0A4F966
:101FDC00786800F0B3F97B6800221A777B681B687D
:101FEC001B6903F00403042B22D17B681B68DB689C
:101FFC0003F00403042B1BD17B681B686FF00402F5
:10200C001A617B6802221A777B681B689B6903F450
:10201C004073002B03D0786800F087F905E07868EE
:10202C0000F07AF9786800F089F97B6800221A7759
:10203C007B681B681B6903F00803082B22D17B68A3
:10204C001B68DB6803F00803082B1BD17B681B683B
:10205C006FF008021A617B6804221A777B681B6890
:10206C00DB6903F00303002B03D0786800F05DF903
:10207C0005E0786800F050F9786800F05FF97B684B
:10208C0000221A777B681B681B6903F01003102B66
:10209C0022D17B681B68DB6803F01003102B1BD16B
:1020AC007B681B686FF010021A617B6808221A7734
:1020BC007B681B68DB6903F44073002B03D07868E2
:1020CC0000F033F905E0786800F026F9786800F044
:1020DC0035F97B6800221A777B681B681B6903F053
:1020EC000103012B0ED17B681B68DB6803F0010335
:1020FC00012B07D17B681B686FF001021A617868AD
:10210C00FEF732FE7B681B681B6903F08003802B93
:10211C000ED17B681B68DB6803F08003802B07D132
:10212C007B681B686FF080021A61786800F067FAB0
:10213C007B681B681B6903F04003402B0ED17B6846
:10214C001B68DB6803F04003402B07D17B681B68DE
:10215C006FF040021A61786800F0F9F87B681B6830
:10216C001B6903F02003202B0ED17B681B68DB68F6
:10217C0003F02003202B07D17B681B686FF0200233
:10218C001A61786800F032FA00BF0837BD4680BD8E
:10219C0080B584B000AF786039607B6893F83C30D0
:1021AC00012B01D10223B3E07B68012283F83C2090
:1021BC007B68022283F83D207B681B689B68FB6070
:1021CC00FB6823F07703FB60FB6823F47F43FB6021
:1021DC007B681B68FA689A603B681B68B3F5005F04
:1021EC003ED0B3F5005F00F28780B3F5805F00F05E
:1021FC008580B3F5805F7FD8702B1AD0702B7BD87D
:10220C00602B50D0602B77D8502B3CD0502B73D8F0
:10221C00402B58D0402B6FD8302B64D0302B6BD840
:10222C00202B60D0202B67D8002B5CD0102B5AD0E1
:10223C0062E07B6818683B6899683B685A683B6841
:10224C00DB6800F05CF97B681B689B68FB60FB68D3
:10225C0043F07703FB607B681B68FA689A604EE07A
:10226C007B6818683B6899683B685A683B68DB6810
:10227C0000F045F97B681B689A687B681B6842F420
:10228C0080429A603BE07B6818683B6859683B6801
:10229C00DB681A4600F0BCF87B681B6850211846B6
:1022AC0000F013F92BE07B6818683B6859683B68B1
:1022BC00DB681A4600F0DAF87B681B686021184668
:1022CC0000F003F91BE07B6818683B6859683B68B1
:1022DC00DB681A4600F09CF87B681B6840211846A6
:1022EC0000F0F3F80BE07B681A683B681B68194632
:1022FC00104600F0EAF802E000BF00E000BF7B6887
:10230C00012283F83D207B68002283F83C200023C7
:10231C0018461037BD4680BD80B483B000AF7860DE
:10232C0000BF0C37BD4680BC704780B483B000AF93
:10233C00786000BF0C37BD4680BC704780B483B05A
:10234C0000AF786000BF0C37BD4680BC704780B4CE
:10235C0083B000AF786000BF0C37BD4680BC7047BF
:10236C0080B485B000AF786039607B681B68FB6017
:10237C007B68254A934207D07B68B3F1804F03D02A
:10238C007B68224A934208D1FB6823F07003FB6000
:10239C003B685B68FA681343FB607B681A4A93429C
:1023AC0007D07B68B3F1804F03D07B68174A934208
:1023BC0008D1FB6823F44073FB603B68DB68FA6868
:1023CC001343FB60FB6823F080023B685B6913439B
:1023DC00FB607B68FA681A603B689A687B68DA6213
:1023EC003B681A687B689A627B68074A934203D100
:1023FC003B681A697B681A637B6801225A6100BFCB
:10240C001437BD4680BC7047002C014000040040CE
:10241C0080B487B000AFF860B9607A60FB681B6A63
:10242C007B61FB681B6A23F00102FB681A62FB6884
:10243C009B693B613B6923F0F0033B617B681B01AB
:10244C003A6913433B617B6923F00A037B617A6928
:10245C00BB6813437B61FB683A699A61FB687A69D4
:10246C001A6200BF1C37BD4680BC704780B487B071
:10247C0000AFF860B9607A60FB681B6A23F0100249
:10248C00FB681A62FB689B697B61FB681B6A3B619A
:10249C007B6923F470437B617B681B037A6913436C
:1024AC007B613B6923F0A0033B61BB681B013A696C
:1024BC0013433B61FB687A699A61FB683A691A625B
:1024CC0000BF1C37BD4680BC704780B485B000AFE0
:1024DC00786039607B689B68FB60FB6823F0700355
:1024EC00FB603A68FB68134343F00703FB607B68AF
:1024FC00FA689A6000BF1437BD4680BC704780B440
:10250C0087B000AFF860B9607A603B60FB689B688D
:10251C007B617B6923F47F437B613B681A027B6898
:10252C001A43BB6813437A6913437B61FB687A696E
:10253C009A6000BF1C37BD4680BC704780B485B024
:10254C0000AF786039607B6893F83C30012B01D187
:10255C00022341E07B68012283F83C207B68022245
:10256C0083F83D207B681B685B68FB607B681B689D
:10257C009B68BB60FB6823F07003FB603B681B68C7
:10258C00FA681343FB607B681B68FA685A607B68C7
:10259C001B68144A934209D07B681B68B3F1804FC7
:1025AC0004D07B681B68104A93420CD1BB6823F0A3
:1025BC008003BB603B685B68BA681343BB607B6895
:1025CC001B68BA689A607B68012283F83D207B689F
:1025DC00002283F83C20002318461437BD4680BCEB
:1025EC00704700BF002C01400004004080B483B051
:1025FC0000AF786000BF0C37BD4680BC704780B41C
:10260C0083B000AF786000BF0C37BD4680BC70470C
:10261C0070B500260C4D0D4C641BA410A64209D1BC
:10262C0000F022F800260A4D0A4C641BA410A642A6
:10263C0005D170BD55F8043B98470136EEE755F8C7
:10264C00043B98470136F2E7AC260008AC2600089C
:10265C00AC260008B026000803460244934200D181
:10266C00704703F8011BF9E7F8B500BFF8BC08BCCC
:10267C009E467047F8B500BFF8BC08BC9E46704734
:10268C0002030405060708090A0B0C0D0E0F1010A7
:10269C000000000000000000010203040607080906
:0426AC0031010008F0
:0426B0000D01000810
:1026B400010002000400000001000000010000000D
:1026C4000100000001000000010000000100000002
:1026D40001000000010000000100000001000000F2
:1026E40001000000010000002C0100002C0100008A
:1026F4002C01000081CF9286CCA4A08F008400001E
:0C2704000024F4001000000001000000A0
:0400000508000FD50B
:00000001FF
